:020000040000FA
:100000000C94E0000C9408010C9408010C94080175
:100010000C9408010C9408010C9408010C949907A5
:100020000C9408010C9408010C9408010C9408012C
:100030000C9408010C9408010C9408010C9408011C
:100040000C944F070C9408010C941B080C94F507B2
:100050000C9408010C9408010C9408010C940801FC
:100060000C944D080C94080100407A10F35A00A03B
:10007000724E18090010A5D4E80000E87648170071
:1000800000E40B54020000CA9A3B000000E1F505B1
:10009000000080969800000040420F000000A086FB
:1000A00001000000102700000000E803000000002D
:1000B0006400000000000A000000000001000000D1
:1000C00000002C76D888DC674F0823DFC1DFAE59EB
:1000D000E1B1B796E5E3E453C63AE651997696E87E
:1000E000E6C28426EB898C9B62ED407C6FFCEFBC02
:1000F0009C9F40F2BAA56FA5F490055A2AF75C932D
:100100006B6CF9676DC11BFCE0E40D47FEF520E662
:10011000B500D0ED902E0300943577050080841E45
:10012000080000204E0A000000C80C333333330FA0
:10013000986E12831141EF8D2114893BE65516CF3D
:10014000FEE6DB18D1844B381BF77C1D901DA4BB49
:10015000E424203284725E228100C9F124ECA1E5FE
:100160003D270000000023002600290002000000B7
:1001700000240027002A0000000000250028002B92
:100180000004040404040404040202020202020340
:10019000030303030301020408102040800102044A
:1001A00008102001020408102000000008000201CD
:1001B0000000030407000000000000000000B10977
:1001C00011241FBECFEFD8E0DEBFCDBF11E0A0E00D
:1001D000B1E0E2E7F8E202C005900D92AA38B1075B
:1001E000D9F723E0AAE8B1E001C01D92A132B2071D
:1001F000E1F710E0C0EED0E004C02197FE010E94BC
:100200003F12CF3DD107C9F70E94F9090C9437146A
:100210000C94000090E0FC01E755FE4F2491FC0196
:10022000EB56FE4F3491FC01EF57FE4FE491EE2365
:10023000C9F0222339F0233001F1A8F4213019F15B
:10024000223029F1F0E0EE0FFF1FE958FE4FA59193
:10025000B4918FB7F894EC91611126C030953E238C
:100260003C938FBF08952730A9F02830C9F024307F
:1002700049F7809180008F7D03C0809180008F7747
:1002800080938000DFCF84B58F7784BDDBCF84B5CA
:100290008F7DFBCF8091B0008F778093B000D2CF5D
:1002A0008091B0008F7DF9CF3E2BDACFCF93DF93D3
:1002B00090E0FC01EB56FE4F24918F579E4FFC01BE
:1002C00084918823D1F090E0880F991FFC01E359B5
:1002D000FE4FA591B491FC01E958FE4FC591D49110
:1002E00061110EC09FB7F8948C91E22FE0958E2398
:1002F0008C932881E223E8839FBFDF91CF910895FB
:100300008FB7F894EC91E22BEC938FBFF6CF3FB709
:10031000F8948091640290916502A0916602B09178
:10032000670226B5A89B05C02F3F19F00196A11DB5
:10033000B11D3FBFBA2FA92F982F8827BC01CD012F
:10034000620F711D811D911D42E0660F771F881F8E
:10035000991F4A95D1F708958F929F92AF92BF92BD
:10036000CF92DF92EF92FF924B015C010E948701D6
:100370006B017C010E9487016C197D098E099F0920
:10038000683E734081059105A8F321E0821A910827
:10039000A108B10888EEC80E83E0D81EE11CF11C4C
:1003A00081149104A104B10429F7FF90EF90DF902C
:1003B000CF90BF90AF909F908F900895089508952B
:1003C0009091000189130BC0ECE6F1E0E4919FEFFE
:1003D00090930001E13049F028F0E23061F060E0F4
:1003E0000C940A0110926E00FACF90916F009D7FDD
:1003F00090936F00F4CF909170009D7F9093700068
:1004000091E09093B0009091B100987F94609093A8
:10041000B1001092B300E3CFAF92BF92CF92DF92C0
:10042000EF92FF920F931F93CF93DF936C017B01A9
:100430008B01040F151FEB015E01AE18BF08C0173A
:10044000D10759F06991D601ED91FC910190F081AD
:10045000E02DC6010995892B79F7C501DF91CF9170
:100460001F910F91FF90EF90DF90CF90BF90AF90D2
:100470000895FC01538D448D252F30E0842F90E0AA
:10048000821B930B541710F0CF960895019708958F
:10049000FC01918D828D981761F0A28DAE0FBF2F58
:1004A000B11D5D968C91928D9F5F9F73928F90E0AE
:1004B00008958FEF9FEF0895FC01918D828D98171D
:1004C00031F0828DE80FF11D858D90E008958FEF5A
:1004D0009FEF0895FC01918D228D892F90E0805C23
:1004E0009F4F821B91098F739927089588E692E0A8
:1004F0000E946A0221E0892B09F420E0822F0895EE
:1005000080E090E0892B29F00E94760281110C9402
:1005100000000895FC01A48DA80FB92FB11DA35AA6
:10052000BF4F2C91848D90E001968F739927848F13
:10053000A689B7892C93A089B1898C918370806436
:100540008C93938D848D981306C00288F389E02DD7
:1005500080818F7D80830895EF92FF920F931F9388
:10056000CF93DF93EC0181E0888F9B8D8C8D981366
:100570001AC0E889F989808185FF15C09FB7F89472
:10058000EE89FF896083E889F989808183708064BE
:1005900080839FBF81E090E0DF91CF911F910F9109
:1005A000FF90EF900895F62E0B8D10E00F5F1F4F18
:1005B0000F731127E02E8C8D8E110CC00FB607FC27
:1005C000FACFE889F989808185FFF5CFCE010E94B5
:1005D0008A02F1CFEB8DEC0FFD2FF11DE35AFF4F97
:1005E000F0829FB7F8940B8FEA89FB898081806243
:1005F000CFCFCF93DF93EC01888D8823B9F0AA8900
:10060000BB89E889F9898C9185FD03C0808186FDCD
:100610000DC00FB607FCF7CF8C9185FFF2CF80811C
:1006200085FFEDCFCE010E948A02E9CFDF91CF9105
:10063000089508952091CB01260F3327331F2132CF
:100640003105ECF420911402FC0190E080E02430AC
:1006500069F082E00895A091CB012191AC0145554C
:100660005E4FA40FB52FB11D2C930196861798F3FA
:100670008091CB01680F6093CB0180E0089581E009
:1006800008951092140281E0809313021092EE01FB
:1006900061E082E10E940A0161E083E10E940A01B7
:1006A000E9EBF0E080818E7F808380818D7F808385
:1006B00088E48093B80085E48093BC000895CF93CC
:1006C000DF9391E09093AA018823B9F0C091B8001C
:1006D000D091BA008091BC008A7B8093BC0060E01E
:1006E00082E10E940A0160E083E10E940A010E9407
:1006F0004103D093BA00C093B800DF91CF91089521
:100700000895E091430280914202E81730F4F0E04E
:10071000E657FE4F808190E008958FEF9FEF089598
:1007200090914302809142022FEF3FEF981748F4D7
:10073000E92FF0E0E657FE4F208130E09F5F909375
:100740004302C90108958091420290914302891B9E
:10075000990B0895CF92DF92EF92FF920F931F9320
:10076000CF93DF937C01CB018A0120911A022223CF
:1007700089F0EB016B01C40ED51ECC15DD0569F0C7
:100780006991D701ED91FC910190F081E02DC701B5
:100790000995F3CF642F0E941A03C801DF91CF910E
:1007A0001F910F91FF90EF90DF90CF900895CF931E
:1007B000DF931F92CDB7DEB7698320911A022223FF
:1007C000F9F020914002203258F021E030E0FC01A5
:1007D0003383228390E080E00F90DF91CF910895E2
:1007E00080914102E82FF0E0E55EFD4F9981908312
:1007F0008F5F809341028093400281E090E0ECCFD4
:1008000061E0CE0101960E941A03F7CFCF92DF92EA
:10081000EF92FF920F931F93CF93DF93FC01C4815C
:1008200021E020931A02C0933B02109241021092E1
:1008300040028385682B85E093E00E94D703D09126
:100840004002D13208F092C00E9487016B017C0106
:1008500080911402811165C082E08093140281E0CE
:10086000809313028FEF8093120210921102D093A3
:100870001002ABE1B2E0E0EFF1E080E0D81385C018
:100880001092EF018091EF01CC0FC82BC093EF01C4
:100890008091EE01813009F07CC01092EE010E943F
:1008A00087016B017C018091EF018093BB008091F7
:1008B000160290911702A0911802B0911902892B8B
:1008C0008A2B8B2B99F00E948701009116021091C0
:1008D000170220911802309119026C197D098E09B6
:1008E0009F090617170728073907E0F18091BC0018
:1008F00083FDD9CF85EC8093BC000E9487016B01FA
:100900007C0180911402823009F445C0809112026A
:100910008F3F61F180911202803241F18091120289
:1009200025C08091160290911702A0911802B091F3
:100930001902892B8A2B8B2B09F48ACF0E948701FD
:10094000009116021091170220911802309119029D
:100950006C197D098E099F090617170728073907A3
:1009600008F076CF809115020E945F031092410239
:100970001092400210921A02DF91CF911F910F91B5
:10098000FF90EF90DF90CF9008959D9191938F5FAE
:1009900075CF85EEB0CF8091160290911702A0918D
:1009A0001802B0911902892B8A2B8B2B09F4A9CF3D
:1009B0000E948701009116021091170220911802DF
:1009C000309119026C197D098E099F0906171707C6
:1009D0002807390708F095CFC5CF90E080E008954B
:1009E000FB0101900020E9F73197AF01461B570B3F
:1009F000DC01ED91FC910280F381E02D09940F93CD
:100A00001F93CF938C01C62F0E9406046C2F646045
:100A1000C8010E9406046C2F6B7FC8010E94060467
:100A200083EC90E00197F1F7CF911F910F9108951A
:100A30000F931F93CF93DF938C01D62FC42F607F2A
:100A4000642B0E94FF0480E1D89FB00111246C2B1D
:100A5000C801DF91CF911F910F910C94FF0440E0EA
:100A600061E081E193E00E9418058BE39FE101972B
:100A7000F1F70895CF93DF93CDB7DEB728970FB680
:100A8000F894DEBF0FBECDBF98E0E7E0F1E0DE01F5
:100A9000119601900D929A95E1F79091190398178C
:100AA00008F48FEF90E0880F991F21E030E02C0FC1
:100AB0003D1F820F931FFC016081606840E081E16F
:100AC00093E028960FB6F894DEBF0FBECDBFDF913E
:100AD000CF910C94180541E00E94180581E090E048
:100AE00008958F929F92AF92BF92CF92DF92EF9232
:100AF000FF92CF93DF93CDB7DEB7A1970FB6F894EF
:100B0000DEBF0FBECDBF6C01990FEE08FF08F7FEE8
:100B100040C041E06DE281E193E00E941805222788
:100B20003327A9012C193D094E095F0919A2CE01ED
:100B300081967C019AE0892E912CA12CB12CCA01BE
:100B4000B901A50194010E940212605DF701629350
:100B50007F01211531054105510589F790E080E0BD
:100B6000309729F0BF0181E193E00E94F0040196E3
:100B7000A1960FB6F894DEBF0FBECDBFDF91CF9127
:100B8000FF90EF90DF90CF90BF90AF909F908F90AD
:100B90000895A701960119A2CE0181967C018AE0F1
:100BA000882E912CA12CB12CCA01B901A501940168
:100BB0000E940212605DF70162937F0121153105E9
:100BC0004105510589F790E080E0309789F2BF0137
:100BD00081E193E00E94F004CBCF0F931F93CF935A
:100BE000DF93EC0188819981009759F02A813B813C
:100BF0002617370730F081E0DF91CF911F910F91D9
:100C000008958B016F5F7F4F0E946A13009759F020
:100C1000998388831B830A832C813D81232B59F779
:100C2000FC011082E8CF80E0E7CFCF93DF93EC01A7
:100C300088819981009711F00E94E112198218822F
:100C40001D821C821B821A82DF91CF9108950F931F
:100C50001F93CF93DF93EC010C811D810F5F1F4F1A
:100C6000B8010E94ED05882391F0288139818C819B
:100C70009D816FE371E0820F931F0E9430141D83EA
:100C80000C83CE01DF91CF911F910F910895CE017A
:100C90000E941506F6CFEF92FF920F931F93CF930A
:100CA000DF93EC01198218821B821A821D821C823A
:100CB0008617970719F1FB010081118101151105B4
:100CC000E9F0E480F580B7010E94ED05811109C0CB
:100CD000CE01DF91CF911F910F91FF90EF900C9477
:100CE0001506FD82EC82B80188819981DF91CF9150
:100CF0001F910F91FF90EF900C943014DF91CF91E2
:100D00001F910F91FF90EF900895EF92FF920F9334
:100D10001F93CF93DF938C017B01EB01099000209F
:100D2000E9F72197C61BD70BBE010E94ED05811183
:100D300009C0C801DF91CF911F910F91FF90EF90F3
:100D40000C941506F801D583C483B7018081918185
:100D5000DF91CF911F910F91FF90EF900C94301481
:100D60000F931F93CF93DF93CDB7DEB762970FB684
:100D7000F894DEBF0FBECDBF8C01CB01F80111820C
:100D8000108213821282158214824AE0BE016F5FC4
:100D90007F4F0E94FF0DBE016F5F7F4FC8010E9411
:100DA000850662960FB6F894DEBF0FBECDBFDF9109
:100DB000CF911F910F910895EF92FF920F931F9380
:100DC000CF93DF93EC01FB01E080F180E114F104AB
:100DD00011F10481158101151105A9F08C819D8106
:100DE000080F191FB801CE010E94ED05882399F064
:100DF000288139818C819D81B701820F931F0E94C8
:100E000030141D830C83CE01DF91CF911F910F9180
:100E1000FF90EF900895CE010E941506F4CFFC01DB
:100E200080819181009711F00C94E112089585ED75
:100E30008093BC008091160290911702A091180235
:100E4000B09119020796A11DB11D23E0B695A79593
:100E5000979587952A95D1F72091BC0024FD03C072
:100E60001092140208954091160250911702609159
:100E7000180270911902452B462B472B69F30097F6
:100E8000A105B10541F02AE22A95F1F700C00197CA
:100E9000A109B109E1CF809115020C945F031F9263
:100EA0000F920FB60F9211242F933F938F939F931E
:100EB000AF93BF938091600290916102A091620212
:100EC000B091630230915F0223E0230F2D3758F574
:100ED0000196A11DB11D20935F0280936002909343
:100EE0006102A0936202B0936302809164029091C8
:100EF0006502A0916602B09167020196A11DB11D25
:100F00008093640290936502A0936602B093670297
:100F1000BF91AF919F918F913F912F910F900FBEF5
:100F20000F901F90189526E8230F0296A11DB11D62
:100F3000D2CF1F920F920FB60F9211242F933F938F
:100F40004F935F936F937F938F939F93AF93BF93D1
:100F5000EF93FF938091490290914A02A0914B0236
:100F6000B0914C02892B8A2B8B2BD1F190914402AA
:100F7000E0914502F091460280818927808380912B
:100F8000490290914A02A0914B02B0914C0218166E
:100F900019061A061B069CF48091490290914A0298
:100FA000A0914B02B0914C020197A109B109809325
:100FB000490290934A02A0934B02B0934C02FF91D6
:100FC000EF91BF91AF919F918F917F916F915F91C1
:100FD0004F913F912F910F900FBE0F901F9018953A
:100FE000809100010E94E001EACF1F920F920FB69C
:100FF0000F9211242F933F934F935F936F937F939F
:101000008F939F93AF93BF93EF93FF9388E692E004
:101010000E948A02FF91EF91BF91AF919F918F91B2
:101020007F916F915F914F913F912F910F900FBEE4
:101030000F901F9018951F920F920FB60F921124C8
:101040002F938F939F93EF93FF93E0917802F0910A
:1010500079028081E0917E02F0917F0282FD1BC0C7
:101060009081809181028F5F8F732091820282171D
:1010700041F0E0918102F0E0E859FD4F958F8093B7
:101080008102FF91EF919F918F912F910F900FBE51
:101090000F901F9018958081F4CF1F920F920FB67A
:1010A0000F9211242F933F934F935F936F937F93EE
:1010B0008F939F93AF93BF93EF93FF938091B9006A
:1010C000887F803609F44AC0F0F5883209F4A7C059
:1010D00018F5803109F49BC0B8F4882309F4F9C0ED
:1010E000883009F494C0FF91EF91BF91AF919F9127
:1010F0008F917F916F915F914F913F912F910F90C1
:101100000FBE0F901F901895883109F488C0803267
:1011100051F78093120214C0803409F49DC040F44A
:101120008033B9F38833F9F68093120285ECB0C0AE
:10113000803509F485C0883509F496C0883499F65D
:101140000E941707D0CF883909F48CC038F588374A
:1011500029F050F4883611F0803729F683E0809327
:1011600014021092ED0157C0883809F47BC0803911
:1011700019F0803809F0B7CF8091ED01803208F086
:1011800071C0E091ED0181E08E0F8093ED018091BF
:10119000BB00F0E0E353FE4F80833DC0803B39F05D
:1011A000E0F4803A09F479C0883A09F09CCF84E0F1
:1011B000809314021092CC011092CB01E0913E0278
:1011C000F0913F0209958091CB0181110FC081E020
:1011D0008093CB011092AB0109C0803C09F4A6CFEB
:1011E000883C09F4A3CF883B09F07DCFE091CC0186
:1011F00081E08E0F8093CC01F0E0E555FE4F8081B9
:101200008093BB009091CC018091CB0129C080914B
:10121000EF018093BB0085EC8093BC0064CF90917C
:10122000110280911002981758F5E091110281E0A7
:101230008E0F80931102F0E0E051FE4F8081E9CFE4
:10124000E091110281E08E0F809311028091BB002A
:10125000F0E0E051FE4F80839091110280911002E6
:101260009817C8F285E8D8CFE091110281E08E0F7F
:10127000809311028091BB00F0E0E051FE4F80832B
:101280008091130281115CCF81E08093EE0184EAAA
:101290008093BC001092140226CF85EC8093BC0092
:1012A000109214028091ED01803230F4E091ED0152
:1012B000F0E0E353FE4F10826091ED0170E0E091A9
:1012C0003C02F0913D028DEC91E009951092ED0108
:1012D0000ACF1092120234CFCF92DF92EF92FF9298
:1012E0000F931F93E82FF92F05C001501109210911
:1012F000310961F1908196239417B9F305C001502B
:1013000011092109310911F1908196239413F7CF26
:10131000C12CD12CE12CF12C0AC08FEFC81AD80AAD
:10132000E80AF80A0C151D052E053F0579F08081A5
:101330008623841791F36C2D7D2D8E2D9F2D1F916B
:101340000F91FF90EF90DF90CF90089560E070E0F4
:1013500080E090E01F910F91FF90EF90DF90CF9091
:101360000895E8E6F2E01382128288EE93E0A0E0AE
:10137000B0E084839583A683B78323E131E0318392
:10138000208325EC30E03587248724EC30E0378754
:10139000268720EC30E0318B208B21EC30E0338B42
:1013A000228B22EC30E0358B248B26EC30E0378B1F
:1013B000268B118E128E138E148EE5E0F3E01382CD
:1013C000128284839583A683B78385E291E091831B
:1013D0008083E1E1F3E01382128287E391E091835D
:1013E000808380E2848380E1818782E08287138624
:1013F0000895CF93DF93CDB7DEB7C554D1090FB6AB
:10140000F894DEBF0FBECDBF789484B5826084BDF2
:1014100084B5816084BD85B5826085BD85B58160F8
:1014200085BD80916E00816080936E001092810076
:101430008091810082608093810080918100816031
:1014400080938100809180008160809380008091F2
:10145000B10084608093B1008091B000816080937E
:10146000B00080917A00846080937A0080917A0045
:10147000826080937A0080917A00816080937A0004
:1014800080917A00806880937A001092C10061E0B8
:101490008CE00E94560160E08BE00E94560161E002
:1014A00082E00E94560161E083E00E94560161E003
:1014B0008AE00E94560161E089E00E94560161E0E5
:1014C00086E00E94560161E087E00E94560160E0DC
:1014D0008FE00E945601E0917802F091790282E05B
:1014E0008083E0917402F09175021082E09176029F
:1014F000F09177028FEC808310928002E0917C0261
:10150000F0917D0286E08083E0917A02F0917B0287
:10151000808180618083E0917A02F0917B028081FA
:1015200088608083E0917A02F0917B0280818068FC
:101530008083E0917A02F0917B0280818F7D8083AD
:101540001092430210924202109241021092400205
:101550000E9441038EED91E090933F0280933E0202
:101560008FED91E090933D0280933C021092160320
:1015700080911B03823018F098E0909316038093BB
:10158000190362E370E080E090E00E94AC0160919A
:101590001C0381E193E00E94060468EE73E080E0A2
:1015A00090E00E94AC0160E381E193E00E94FF04BF
:1015B0000BE416E4C8010197F1F760E381E193E0E1
:1015C0000E94FF04C8010197F1F760E381E193E015
:1015D0000E94FF0483E592E00197F1F760E281E168
:1015E00093E00E94FF0460911603606240E081E195
:1015F00093E00E94180584E08093170340E06CE0BC
:1016000081E193E00E9418050E942F0582E08093FB
:10161000180340E066E081E193E00E94180540E095
:1016200062E081E193E00E9418058BE39FE101975E
:10163000F1F788E080931C0360E081E193E00E9471
:10164000060480E00E943A0561E471E081E193E0E4
:101650000E94F00460ED77E080E090E00E94AC0131
:101660000E942F0543E2242E312C58EE852E53E0A4
:10167000952EA12CB12CCC24CA94DC2C760160E0F0
:101680008CE00E940A0183E090E00197F1F761E0AD
:101690008CE00E940A01C1010197F1F760E08CE043
:1016A0000E940A01E0EAF1E06491ECE8F1E0E491E3
:1016B000F0E0EE0FFF1FEE59FE4F8591949100E48C
:1016C00012E42FE030E0462F0E946C09611571058D
:1016D0008105910529F06F5F7F4F8F4F9F4F9F705E
:1016E0000E948D1028E23EE74CE05DE30E94EE1080
:1016F00020E030E040E05FE30E94EE1060935B0288
:1017000070935C0280935D0290935E0281E480930B
:101710007C0080917A00806480937A0080917A00C6
:1017200086FDFCCFA0917800B091790024E630E0EE
:101730000E9438122FEF33E040E050E00E94AC11DD
:1017400030935A02209359020E942F0520E030E086
:1017500048E452E460915B0270915C0280915D020A
:1017600090915E020E94331287FDF0C010925802E1
:101770001092570260E082E00E940A0160E083E07C
:101780000E940A0187E00E94E00110925602109226
:10179000550260E086E00E940A0160E08AE00E9453
:1017A0000A0160E089E00E940A0180E00E943A0597
:1017B00064E571E081E193E00E94F0042FB7F894B2
:1017C0006091600270916102809162029091630267
:1017D0002FBFA50194010E94021229013A016091D4
:1017E000550270915602CE0182960E94B006609119
:1017F000590270915A02CE0188960E94B0066091FB
:101800005B0270915C0280915D0290915E021FA666
:101810001EA619AA18AA1BAA1AAA8E010F5F1F4F8B
:1018200022E044E00E94E10D009709F4C5C1BC012B
:10183000CE018E960E9485066091570270915802E3
:10184000CE01C4960E94B0061BAE1AAE1DAE1CAEF1
:101850001FAE1EAE2AE0AE014F5F5F4FC301B20163
:101860000E940A0EBE016F5F7F4FCE01CA960E9492
:101870008506BE01665C7F4FCE0101960E944B0635
:10188000CE0101960E942706BE016C5C7F4F0E942C
:10189000DC060E942706BE01625D7F4F0E94DC06C7
:1018A0000E942706BE01685D7F4F0E94DC060E94F1
:1018B0002706BE016E5D7F4F0E94DC06BC01CE0193
:1018C000805C9F4F0E944B06CE0101960E940F073D
:1018D000CE01CA960E940F07CE01C4960E940F0740
:1018E000CE018E960E940F07CE0188960E940F07A8
:1018F000CE0182960E940F0726964EAD5FAD2697C9
:1019000022966EAD7FAD229788E692E00E940C028F
:1019100066E871E088E692E00E94F00460ED77E00E
:1019200080E090E00E94AC01CE01805C9F4F0E945D
:101930000F0780E090E0892B09F4A1CE0E94760287
:10194000882309F49CCE0E94000099CE81E090E0AB
:10195000909358028093570280E00E943A0561E616
:1019600071E081E193E00E94F0048091590290912E
:101970005A0288970CF4FFC061E082E00E940A01DD
:1019800060E083E00E940A0180910001873031F518
:10199000ECE6F1E0149117FDC2C061E087E00E941F
:1019A0005601112309F48CC0123009F09DC08091BA
:1019B000B100887F83608093B10089EF8093B3008A
:1019C000C0924902D0924A02E0924B02F0924C023D
:1019D00080917000826080937000A1C08F3F09F0F9
:1019E0009EC087E080930001ECE6F1E014911F3F78
:1019F00009F495C0113021F150F0123009F43EC0C5
:101A000017FD8DC061E087E00E945601CDCF14BC68
:101A100015BC84B5826084BD85B5816085BDE8E86C
:101A2000F1E0E491F0E0EE0FFF1FE958FE4F8591E1
:101A30009491ECE9F1E0E491E093480210E0ADCF3D
:101A400010928000109281008091810088608093C4
:101A5000810080918100816080938100E8E8F1E05D
:101A6000E491F0E0EE0FFF1FE958FE4F859194914D
:101A7000ECE9F1E0E491E09347028FCF1092B000DF
:101A80001092B1008091B00082608093B00080918C
:101A9000B10081608093B100E8E8F1E0E491F0E00A
:101AA000EE0FFF1FE958FE4F8591949190934602E7
:101AB00080934502ECE9F1E0E491E09344026DCFBC
:101AC00085B5887F836085BD8CE787BDC092510254
:101AD000D0925202E0925302F092540280916E0032
:101AE000826080936E001BC01130E9F58091810007
:101AF000887F8160809381008FE39FE190938900CC
:101B000080938800C0924D02D0924E02E0924F0224
:101B1000F092500280916F00826080936F0081E0AC
:101B200090E0909356028093550261E086E00E9417
:101B30000A0161E08AE00E940A0160E089E00E94F7
:101B40000A0181E00E943A056FE671E081E193E0CD
:101B50000E94F0048091590290915A020E947105EE
:101B60006DE771E027CE123021F01111D8CF8FE34D
:101B7000ACCF8FE323CF60E082E00E940A0161E0F6
:101B800083E00E940A0187E00E94E0011092560261
:101B90001092550260E086E00E940A0160E08AE04F
:101BA0000E940A0160E089E00E940A0181E00E942F
:101BB0003A056FE771E0CACFCE018E960E941506F6
:101BC0003BCEEF920F931F93CF93DF93E80134E066
:101BD00047FD34E1042E000C550B57FF03C051950F
:101BE00041955109E32E022F242FAE010E94460E8B
:101BF000CE01DF91CF911F910F91EF900895BB27F8
:101C00004A3031F4992322F4BDE2909581959F4F9B
:101C10000C942D0EBB27FA01A62F621771058105C2
:101C20009105330B30FB66F0AA27660F771F881FDC
:101C3000991FAA1FA21710F0A21B63953850A9F78D
:101C4000A05DAA3308F0A95DA19336F7B111B19355
:101C50001082CA010C947D10BB27FB015527AA27CF
:101C6000880F991FAA1FA41710F0A41B8395505129
:101C7000B9F7A05DAA3308F0A95DA193009779F7A1
:101C8000B111B1931192CB010C947D10A9E0B0E099
:101C9000ECE4FEE00C94D1116A01F22EB02E102F6C
:101CA000FBE3AF2EA01608F41BE31F5F012F27E014
:101CB000AE014F5F5F4F0E94A50FBC018981982F35
:101CC0009970913009F43FC09BE2E1FC04C09E2D65
:101CD0009170E0FC3AC05E2D5071E82FE87083FFF0
:101CE00046C084E0911101C083E0EF2DE81B8F1501
:101CF00008F0E0E0D6018E2F20E2552351F1992320
:101D000029F0D6019C93C60101966C0196012D5FC6
:101D10003F4FE2FE24C08EE4D6018C9391E41196ED
:101D20009C93119712968C93D9018E2F90E281117A
:101D30001BC0E20FF32FF11D10828EEF9FEF29964B
:101D4000ECE00C94ED119DE2C6CF90E2C4CF2D9350
:101D500081508111FCCFCE0ED11CE0E0D0CF8EE6B9
:101D6000D6018C9391E6DBCF9D938150E0CF482F35
:101D7000447082FF3DC084E0911101C083E08F1563
:101D800010F4EF2DE81BD6018E2F20E2552309F128
:101D9000992329F0D6019C93C60101966C01960106
:101DA0002D5F3F4FE2FE1BC089E4D6018C938EE489
:101DB00011968C93119786E412968C93D9018E2FED
:101DC00090E2882309F4B5CF9D938150FACF2D93EB
:101DD00081508111FCCFCE0ED11CE0E0D9CF89E635
:101DE000D6018C938EE611968C93119786E6E4CFFC
:101DF0009B0177FF02C030E020E0A1E0B0E091114C
:101E000002C0B0E0A0E0F9013196AE0FBF1F8B2CED
:101E1000912CBB2009F461C05401EFEFAE1ABE0A49
:101E2000AA0DBB1DFA161B0619F014F04F2D4A1B04
:101E3000511188C0E3FC59C07601A42FB0E2A11172
:101E40004FC0C40ED11C992309F45BC040E0D601F9
:101E50001196F60190836D01552309F448C0012FB6
:101E6000060F9A81582F507184FF03C0913309F4F3
:101E7000015010160CF047C0093008F008E0EEE2FF
:101E8000FE2E5B01A01AB1088501919481949108FE
:101E90002F3F320729F4D601FC92F60131966F01EB
:101EA0006217730794F1021713077CF5DB01A21B7D
:101EB000B30BAA24A394B12CAC0EBD1EAA0DBB1D5E
:101EC00011968C9121503109D601119628153905AA
:101ED000F4F0F60180836D01DBCFB12CA12CA0CFF3
:101EE000F701B1937F01A150AACF9111B0CFD601D4
:101EF000942F50E302C05D9391509111FCCFC40E1A
:101F0000D11C40E0ACCF01E0BACF80E3DBCF621759
:101F1000730731F4963388F4953311F4552369F03F
:101F2000F6018083FD01842F90E2811108C0A40F87
:101F3000B11D1C9290E080E002CF81E3F1CF91933C
:101F40008150F3CF911183CF8ACF283008F027E05A
:101F50003327DA01990F311D87FD916000966105E5
:101F6000710539F432602E5F3D9330E32A95E1F735
:101F700008959F3F30F080387105610509F03C5F9E
:101F80003C5F3D93913008F08068911DDF93CF93C3
:101F90001F930F93FF92EF92192F987F9695E92F39
:101FA00096959695E90FFF27EE53FF4F9927332714
:101FB000EE24FF24A701E70105900894079428F474
:101FC000360FE71EF81E491F511D660F771F881F29
:101FD000991F0694A1F70590079428F4E70EF81EC0
:101FE000491F561FC11D770F881F991F661F069432
:101FF000A1F70590079428F4F80E491F561FC71F34
:10200000D11D880F991F661F771F0694A1F70590B1
:10201000079420F4490F561FC71FD81F990F661F3A
:10202000771F881F0694A9F784911095177041F0C7
:10203000D695C79557954795F794E7941A95C1F7A4
:10204000E8E6F0E0689415901591359165919591C9
:1020500005907FE27395E118F10A430B560BC90B0B
:10206000D009C0F7E10CF11E431F561FC91FD01D38
:102070007EF4703311F48A95E6CFE894015030F085
:10208000080F0AF40027021708F4202F2395022FC7
:102090007A3328F079E37D932A95E9F710C07D9390
:1020A0002A9589F60694979567953795179517940D
:1020B000E118F10A430B560BC90BD00998F0239590
:1020C0007E9173957A3308F070E37C932013B8F710
:1020D0007E9170617D9330F0839571E37D9370E321
:1020E0002A95E1F71124EF90FF900F911F91CF9166
:1020F000DF91992787FD90950895DC01FC01672FFA
:1021000071917723E1F7329704C07C916D937083CE
:102110006291AE17BF07C8F30895E89409C097FB12
:102120003EF490958095709561957F4F8F4F9F4FAE
:102130009923A9F0F92F96E9BB279395F6958795F2
:1021400077956795B795F111F8CFFAF4BB0F11F4B5
:1021500060FF1BC06F5F7F4F8F4F9F4F16C088235C
:1021600011F096E911C0772321F09EE8872F762F92
:1021700005C0662371F096E8862F70E060E02AF0D3
:102180009A95660F771F881FDAF7880F96958795BF
:1021900097F90895990F0008550FAA0BE0E8FEEF94
:1021A00016161706E807F907C0F012161306E4071B
:1021B000F50798F0621B730B840B950B39F40A2614
:1021C00061F0232B242B252B21F408950A2609F4F2
:1021D000A140A6958FEF811D811D08950E940111D8
:1021E0000C9472110E94641138F00E946B1120F05F
:1021F000952311F00C945B110C94611111240C9433
:10220000A6110E94831170F3959FC1F3950F50E0C2
:10221000551F629FF001729FBB27F00DB11D639F98
:10222000AA27F00DB11DAA1F649F6627B00DA11D3E
:10223000661F829F2227B00DA11D621F739FB00DE4
:10224000A11D621F839FA00D611D221F749F332754
:10225000A00D611D231F849F600D211D822F762FED
:102260006A2F11249F5750409AF0F1F088234AF0CA
:10227000EE0FFF1FBB1F661F771F881F9150504036
:10228000A9F79E3F510580F00C945B110C94A611A8
:102290005F3FE4F3983ED4F3869577956795B795BD
:1022A000F795E7959F5FC1F7FE2B880F911D9695D7
:1022B000879597F9089597F99F6780E870E060E047
:1022C00008959FEF80EC089500240A9416161706CF
:1022D00018060906089500240A9412161306140617
:1022E00005060895092E0394000C11F4882352F07A
:1022F000BB0F40F4BF2B11F460FF04C06F5F7F4F32
:102300008F4F9F4F089557FD9058440F551F59F018
:102310005F3F71F04795880F97FB991F61F09F3FD2
:1023200079F087950895121613061406551FF2CFFB
:102330004695F1DF08C0161617061806991FF1CF4B
:1023400086957105610508940895E894BB27662772
:102350007727CB0197F90895052E97FB1EF400947B
:102360000E94C31157FD07D00E94021207FC03D040
:102370004EF40C94C31150954095309521953F4FE4
:102380004F4F5F4F089590958095709561957F4F61
:102390008F4F9F4F08952F923F924F925F926F926F
:1023A0007F928F929F92AF92BF92CF92DF92EF92E5
:1023B000FF920F931F93CF93DF93CDB7DEB7CA1B66
:1023C000DB0B0FB6F894DEBF0FBECDBF09942A8891
:1023D000398848885F846E847D848C849B84AA8439
:1023E000B984C884DF80EE80FD800C811B81AA81C6
:1023F000B981CE0FD11D0FB6F894DEBF0FBECDBF91
:10240000ED010895A1E21A2EAA1BBB1BFD010DC010
:10241000AA1FBB1FEE1FFF1FA217B307E407F50794
:1024200020F0A21BB30BE40BF50B661F771F881F70
:10243000991F1A9469F760957095809590959B0106
:10244000AC01BD01CF010895A29FB001B39FC001AF
:10245000A39F700D811D1124911DB29F700D811DD0
:102460001124911D08950E94CA1008F48FEF089559
:102470000E942412B7FF0895821B930B0895EE0F5C
:10248000FF1F0590F491E02D09940F931F93CF93B4
:10249000DF938230910510F482E090E0E0911F0319
:1024A000F091200330E020E0B0E0A0E0309799F414
:1024B0002115310509F44AC0281B390B2430310598
:1024C000D8F58A819B816115710589F1FB019383A0
:1024D0008283FE0111C0408151810281138148171E
:1024E0005907E0F04817590799F4109761F01296D0
:1024F0000C93129713961C933296CF01DF91CF91D4
:102500001F910F91089500931F0310932003F4CFA0
:102510002115310551F04217530738F0A901DB01AD
:102520009A01BD01DF01F801C1CFEF01F9CF90930E
:10253000200380931F03CDCFFE01E20FF31F819391
:1025400091932250310939832883D7CF20911D03DD
:1025500030911E03232B41F420910301309104019B
:1025600030931E0320931D0320910101309102013D
:102570002115310541F42DB73EB740910501509129
:102580000601241B350BE0911D03F0911E03E21799
:10259000F307A0F42E1B3F0B2817390778F0AC0186
:1025A0004E5F5F4F2417350748F04E0F5F1F509363
:1025B0001E0340931D03819391939FCFF0E0E0E0D1
:1025C0009CCFCF93DF930097E9F0FC013297138201
:1025D0001282A0911F03B0912003ED0130E020E0B2
:1025E0001097A1F420813181820F931F20911D0348
:1025F00030911E032817390709F061C0F0931E03BC
:10260000E0931D03DF91CF910895EA01CE17DF0714
:10261000E8F54A815B819E0141155105B1F7E90159
:10262000FB83EA8349915991C40FD51FEC17FD072D
:1026300061F4808191810296840F951FE90199834D
:102640008883828193819B838A83F0E0E0E0129605
:102650008D919C9113970097B9F52D913C9111970D
:10266000CD010296820F931F20911D0330911E030E
:102670002817390739F6309751F510922003109238
:102680001F03B0931E03A0931D03BCCFD383C2834B
:1026900040815181840F951FC817D90761F44E5F9F
:1026A0005F4F88819981480F591F518340838A81E8
:1026B0009B81938382832115310509F0B0CFF0937C
:1026C0002003E0931F039ECFFD01DC01C0CF1382E6
:1026D0001282D7CFB0E0A0E0E0E7F3E10C94CD1197
:1026E0008C01009751F4CB010E9445128C01C80166
:1026F000CDB7DEB7E0E10C94E911FC01E60FF71F5E
:102700009C0122503109E217F30708F49DC0D9015A
:10271000CD91DC911197C617D70798F0C530D10538
:1027200030F3CE0104978617970708F3C61BD70B23
:102730002297C193D1936D937C93CF010E94E112B4
:10274000D6CF5B01AC1ABD0A4C018C0E9D1EA09128
:102750001F03B0912003512C412CF12CE12C109738
:1027600031F580911D0390911E038815990509F09C
:102770005CC04616570608F058C080910101909140
:102780000201009741F48DB79EB740910501509129
:102790000601841B950BE817F90708F055C0F09364
:1027A0001E03E0931D03F90171836083A0CF8D9117
:1027B0009C91119712966C90129713967C90139798
:1027C000A815B90559F56C0142E0C40ED11CCA1414
:1027D000DB0420F1AC014A195B09DA011296159766
:1027E00080F06282738251834083D9016D937C9320
:1027F000E114F10471F0D7011396FC93EE93129754
:1028000076CF22968C0F9D1FF90191838083F3016F
:10281000EFCFF0932003E0931F0369CF48165906CA
:1028200008F42C017D01D3019ACFCB010E944512FF
:102830007C01009749F0AE01B8010E942714C8013D
:102840000E94E112870153CF10E000E050CFFB015E
:10285000DC0102C001900D9241505040D8F708951C
:10286000FB01DC0101900D920020E1F70895F8943E
:10287000FFCFFF000021038000000040001400543F
:102880000000000000AC020C023902F9026A0248A2
:10289000025C0200000000D703AA03ED048003A33A
:1028A0000390038103000000006B050C02ED041986
:1028B000032C00496E7370656374696F6E204D6FF1
:1028C0006E69746F72004E6F204F63637570616E36
:1028D000637900496E20496E7370656374696F6E29
:1028E00000534D4F4B4520414C4552543A20002552
:0C28F00000536166653A20000D0A0000EC
:107E0000112484B714BE81FFF0D085E080938100F7
:107E100082E08093C00088E18093C10086E0809377
:107E2000C20080E18093C4008EE0C9D0259A86E02C
:107E300020E33CEF91E0309385002093840096BBD3
:107E4000B09BFECF1D9AA8958150A9F7CC24DD24C4
:107E500088248394B5E0AB2EA1E19A2EF3E0BF2EE7
:107E6000A2D0813461F49FD0082FAFD0023811F036
:107E7000013811F484E001C083E08DD089C08234E0
:107E800011F484E103C0853419F485E0A6D080C0E4
:107E9000853579F488D0E82EFF2485D0082F10E0AE
:107EA000102F00270E291F29000F111F8ED06801E7
:107EB0006FC0863521F484E090D080E0DECF843638
:107EC00009F040C070D06FD0082F6DD080E0C81688
:107ED00080E7D80618F4F601B7BEE895C0E0D1E017
:107EE00062D089930C17E1F7F0E0CF16F0E7DF06D8
:107EF00018F0F601B7BEE89568D007B600FCFDCFD4
:107F0000A601A0E0B1E02C9130E011968C91119780
:107F100090E0982F8827822B932B1296FA010C0160
:107F200087BEE89511244E5F5F4FF1E0A038BF0790
:107F300051F7F601A7BEE89507B600FCFDCF97BE46
:107F4000E89526C08437B1F42ED02DD0F82E2BD052
:107F50003CD0F601EF2C8F010F5F1F4F84911BD097
:107F6000EA94F801C1F70894C11CD11CFA94CF0C13
:107F7000D11C0EC0853739F428D08EE10CD085E9AC
:107F80000AD08FE07ACF813511F488E018D01DD067
:107F900080E101D065CF982F8091C00085FFFCCF94
:107FA0009093C60008958091C00087FFFCCF809118
:107FB000C00084FD01C0A8958091C6000895E0E648
:107FC000F0E098E1908380830895EDDF803219F02E
:107FD00088E0F5DFFFCF84E1DECF1F93182FE3DFCA
:107FE0001150E9F7F2DF1F91089580E0E8DFEE27F6
:047FF000FF270994CA
:027FFE00040479
:00000001FF
