:020000040000FA
:100000000C9463000C948B000C948B000C948B006C
:100010000C948B000C948B000C948B000C94550961
:100020000C948B000C948B000C948B000C948B0024
:100030000C948B000C948B000C948B000C948B0014
:100040000C940B090C948B000C94D7090C94B109F7
:100050000C948B000C948B000C948B000C948B00F4
:100060000C94090A0C948B00000000002400270067
:100070002A0000000008000201000003040700003D
:1000800000000000000000000000230026002900FE
:1000900000000000250028002B00020404040404D2
:1000A0000404040202020202020303030303030125
:1000B00002040810204080010204081020010204FC
:1000C00008102000280B11241FBECFEFD8E0DEBFA0
:1000D000CDBF11E0A0E0B1E0E2E1F7E202C005909F
:1000E0000D92A03AB107D9F723E0A0EAB1E001C030
:1000F0001D92A634B207E1F710E0C3E6D0E004C0D9
:100100002197FE010E948F11C236D107C9F70E94C4
:10011000900B0C9487130C940000CF92DF92EF9217
:10012000FF92CF93DF93B0912A03A0E08111AB2F10
:1001300080912B0390E0880F991FAC014A575F4FC5
:10014000C0903003D0903103E0903203F09033033D
:1001500030E020E0FA01C591D491E881B90190E046
:1001600080E0EB23EA130AC02F5F3F4F6C157D053B
:100170008E059F0578F36FEF7FEFCB01DF91CF9175
:10018000FF90EF90DF90CF90089590E0FC01EE5843
:10019000FF4F2491FC01E155FF4F3491FC01E556DE
:1001A000FF4FE491EE23C9F0222339F0233001F10F
:1001B000A8F4213019F1223029F1F0E0EE0FFF1FF1
:1001C000E057FF4FA591B4918FB7F894EC9161116E
:1001D00026C030953E233C938FBF08952730A9F069
:1001E0002830C9F0243049F7809180008F7D03C00A
:1001F000809180008F7780938000DFCF84B58F77E8
:1002000084BDDBCF84B58F7DFBCF8091B0008F772D
:100210008093B000D2CF8091B0008F7DF9CF3E2B7C
:10022000DACFCF93DF9390E0FC01E155FF4F2491AB
:1002300085569F4FFC0184918823C9F090E0880F78
:10024000991FFC01E859FF4FA591B491FC01E057BB
:10025000FF4FC591D49161110DC09FB7F8948C9157
:10026000209582238C938881282328839FBFDF9148
:10027000CF910895623051F49FB7F8943C91822F4A
:10028000809583238C93E8812E2BEFCF8FB7F89442
:10029000EC912E2B2C938FBFEACFCF92DF92EF926F
:1002A000FF92CF936C0180910001873049F08F3F1E
:1002B00009F444C0CF91FF90EF90DF90CF90089564
:1002C000EAE9F0E0C491C7FDF5CF61E087E00E9464
:1002D0001101F12CE12CCC23D9F0960150E040E043
:1002E000C23009F09AC07A0160E970ED83E090E0D5
:1002F0000E945E10BA01A9014150510961097109BA
:1003000093E04F3F51056105710509F00CF4C1C040
:1003100068E478EE81E090E0A70196010E945E100B
:10032000BA01A901415051096109710994E0C11153
:10033000B0C085B5887F836085BDB7C087E08093F6
:100340000001EAE9F0E0C491CF3F09F4B3CFC13036
:1003500021F150F0C23009F43EC0C7FDABCF61E0DF
:1003600087E00E941101B9CF14BC15BC84B582602E
:1003700084BD85B5816085BDE2EAF0E0E491F0E0FE
:10038000EE0FFF1FE057FF4F85919491E6EBF0E0F1
:10039000E491E0936D02C0E098CF1092800010923B
:1003A000810080918100886080938100809181002C
:1003B000816080938100E2EAF0E0E491F0E0EE0FEA
:1003C000FF1FE057FF4F85919491E6EBF0E0E49139
:1003D000E0936C027ACF1092B0001092B10080913D
:1003E000B00082608093B0008091B1008160809302
:1003F000B100E2EAF0E0E491F0E0EE0FFF1FE05719
:10040000FF4F8591949190936B0280936A02E6EB83
:10041000F0E0E491E093690258CF60E072E18AE78E
:1004200090E00E945E10BA01A90141505109610992
:100430007109C130A1F580918100887F816080932E
:10044000810050938900409388008FEF9FEFDC017B
:100450008093720290937302A0937402B09375021A
:1004600080916F00826080936F0024CF4093B3002F
:100470008FEF9FEFDC0180936E0290936F02A09349
:100480007002B0937102809170008260809370005E
:1004900011CF8091B100887F892B8093B100C1304A
:1004A00081F2C23019F3C11105CF47BD8FEF9FEF25
:1004B000DC018093760290937702A0937802B09348
:1004C000790280916E00826080936E00F3CE3FB718
:1004D000F8948091610290916202A0916302B091C0
:1004E000640226B5A89B05C02F3F19F00196A11DF7
:1004F000B11D3FBFBA2FA92F982F8827BC01CD016E
:10050000620F711D811D911D42E0660F771F881FCC
:10051000991F4A95D1F708958F929F92AF92BF92FB
:10052000CF92DF92EF92FF924B015C010E94670233
:100530006B017C010E9467026C197D098E099F097D
:10054000683E734081059105A8F321E0821A910865
:10055000A108B10888EEC80E83E0D81EE11CF11C8A
:1005600081149104A104B10429F7FF90EF90DF906A
:10057000CF90BF90AF909F908F900895CF92DF92D1
:10058000EF92FF920F931F93CF93DF93CDB7DEB718
:10059000C054D1400FB6F894DEBF0FBECDBF2FB709
:1005A000F8948091650290916602A0916702B091E3
:1005B00068022FBF40912C0350912D0360912E03B0
:1005C00070912F038C019D01041B150B260B370B1B
:1005D000B901A801403D57406105710590F4809133
:1005E0003403C05CDE4F0FB6F894DEBF0FBECDBF44
:1005F000DF91CF911F910F91FF90EF90DF90CF90FF
:10060000089580932C0390932D03A0932E03B09311
:100610002F031092270310922603109225031092A5
:1006200024031092230362E0809128030E941101A9
:1006300061E070E080E090E00E948C0261E08091D7
:1006400028030E94110160E0809128030E94C500E8
:10065000809129038551823020F58BE291E1019749
:10066000F1F762E0809128030E9411018091350327
:1006700090E08230910538F0880F991F880F991FFC
:1006800005970197F1F7F89480E00E948D006F3F85
:100690007F4F8F4F9F4F61F410923403789480E026
:1006A000A0CF64E170E080E090E00E948C02D9CF9E
:1006B00081E00E948D006F3F7F4F8F4F9F4F61F30E
:1006C0008E010F5F1F4F6E018FEBC81A8EEFD80A95
:1006D000780180E00E948D00F7016083718382833E
:1006E000938381E00E948D00F70164837583868384
:1006F0009783F8E0EF0EF11CEC14FD0451F77894A9
:1007000030E020E0F801C080D180E280F3804481B5
:10071000558166817781FFEFCF16DF06EF06FF0672
:1007200031F04F3F8FEF58076807780719F41092A0
:100730003403B5CFF90183E0F595E7958A95E1F7A4
:10074000ED5DFC4F8081880FC416D506E606F706DE
:1007500010F180832F5F3F4F085F1F4F2832310514
:1007600089F6409127032091230380912403280FC9
:100770003327331F80912503280F311D80912603D5
:10078000820F932F911D99274817190681F681E052
:100790008093340326CF8160DCCF08950895909133
:1007A000000189130BC0EAE9F0E0E4919FEF909318
:1007B0000001E13049F028F0E23061F060E00C9493
:1007C000C50010926E00FACF90916F009D7F9093BC
:1007D0006F00F4CF909170009D7F9093700091E036
:1007E0009093B0009091B100987F94609093B10085
:1007F0001092B300E3CFAF92BF92CF92DF92EF920D
:10080000FF920F931F93CF93DF936C017B018B01BA
:10081000040F151FEB015E01AE18BF08C017D1070A
:1008200059F06991D601ED91FC910190F081E02D94
:10083000C6010995892B79F7C501DF91CF911F91E9
:100840000F91FF90EF90DF90CF90BF90AF90089501
:10085000FC01538D448D252F30E0842F90E0821BC6
:10086000930B541710F0CF96089501970895FC014B
:10087000918D828D981761F0A28DAE0FBF2FB11DA3
:100880005D968C91928D9F5F9F73928F90E00895FB
:100890008FEF9FEF0895FC01918D828D981731F0B5
:1008A000828DE80FF11D858D90E008958FEF9FEF09
:1008B0000895FC01918D228D892F90E0805C9F4FDF
:1008C000821B91098F73992708958AE792E00E940D
:1008D000590421E0892B09F420E0822F089580E05B
:1008E00090E0892B29F00E94650481110C9400008E
:1008F0000895FC01A48DA80FB92FB11DA35ABF4FB5
:100900002C91848D90E001968F739927848FA6890E
:10091000B7892C93A089B1898C91837080648C9362
:10092000938D848D981306C00288F389E02D808111
:100930008F7D80830895EF92FF920F931F93CF9343
:10094000DF93EC0181E0888F9B8D8C8D98131AC00A
:10095000E889F989808185FF15C09FB7F894EE89F1
:10096000FF896083E889F98980818370806480834E
:100970009FBF81E090E0DF91CF911F910F91FF9099
:10098000EF900895F62E0B8D10E00F5F1F4F0F7341
:100990001127E02E8C8D8E110CC00FB607FCFACFFC
:1009A000E889F989808185FFF5CFCE010E9479041D
:1009B000F1CFEB8DEC0FFD2FF11DE35AFF4FF082CD
:1009C0009FB7F8940B8FEA89FB8980818062CFCF33
:1009D000CF93DF93EC01888D8823B9F0AA89BB8976
:1009E000E889F9898C9185FD03C0808186FD0DC061
:1009F0000FB607FCF7CF8C9185FFF2CF808185FF82
:100A0000EDCFCE010E947904E9CFDF91CF91089517
:100A100008952091E101260F3327331F213231053C
:100A2000ECF420912A02FC0190E080E0243069F08F
:100A300082E00895A091E1012191AC014F535E4FF6
:100A4000A40FB52FB11D2C930196861798F38091B2
:100A5000E101680F6093E10180E0089581E008956D
:100A600010922A0281E0809329021092040261E030
:100A700082E10E94C50061E083E10E94C500E9EBCC
:100A8000F0E080818E7F808380818D7F808388E409
:100A90008093B80085E48093BC000895CF93DF93E2
:100AA00091E09093C0018823B9F0C091B800D09133
:100AB000BA008091BC008A7B8093BC0060E082E138
:100AC0000E94C50060E083E10E94C5000E943005DD
:100AD000D093BA00C093B800DF91CF9108950895E4
:100AE000E091590280915802E81730F4F0E0E056A6
:100AF000FE4F808190E008958FEF9FEF08959091D1
:100B00005902809158022FEF3FEF981748F4E92FD0
:100B1000F0E0E056FE4F208130E09F5F9093590255
:100B2000C90108958091580290915902891B990B2F
:100B30000895CF92DF92EF92FF920F931F93CF937E
:100B4000DF937C01CB018A0120913002222389F0BE
:100B5000EB016B01C40ED51ECC15DD0569F0699162
:100B6000D701ED91FC910190F081E02DC70109952D
:100B7000F3CF642F0E940905C801DF91CF911F9127
:100B80000F91FF90EF90DF90CF900895CF93DF9378
:100B90001F92CDB7DEB76983209130022223F9F08E
:100BA00020915602203258F021E030E0FC013383DE
:100BB000228390E080E00F90DF91CF9108958091A3
:100BC0005702E82FF0E0EF5CFD4F998190838F5F33
:100BD000809357028093560281E090E0ECCF61E071
:100BE000CE0101960E940905F7CFCF92DF92EF92D6
:100BF000FF920F931F93CF93DF93FC01C48121E0F9
:100C000020933002C0935102109257021092560264
:100C10008385682B87E193E00E94C605D091560238
:100C2000D13208F092C00E9467026B017C01809172
:100C30002A02811165C082E080932A0281E08093BC
:100C400029028FEF8093280210922702D093260268
:100C5000A1E3B2E0E6E0F2E080E0D81385C01092B4
:100C6000050280910502CC0FC82BC093050280912C
:100C70000402813009F07CC0109204020E946702D5
:100C80006B017C01809105028093BB0080912C0256
:100C900090912D02A0912E02B0912F02892B8A2BC8
:100CA0008B2B99F00E94670200912C0210912D026B
:100CB00020912E0230912F026C197D098E099F0917
:100CC0000617170728073907E0F18091BC0083FD5C
:100CD000D9CF85EC8093BC000E9467026B017C0138
:100CE00080912A02823009F445C0809128028F3F0A
:100CF00061F180912802803241F18091280225C063
:100D000080912C0290912D02A0912E02B0912F0281
:100D1000892B8A2B8B2B09F48ACF0E9467020091C2
:100D20002C0210912D0220912E0230912F026C196D
:100D30007D098E099F09061717072807390708F04C
:100D400076CF80912B020E944E051092570210928E
:100D5000560210923002DF91CF911F910F91FF90B8
:100D6000EF90DF90CF9008959D9191938F5F75CF15
:100D700085EEB0CF80912C0290912D02A0912E0291
:100D8000B0912F02892B8A2B8B2B09F4A9CF0E94BB
:100D9000670200912C0210912D0220912E023091B9
:100DA0002F026C197D098E099F090617170728075E
:100DB000390708F095CFC5CF90E080E00895FB019A
:100DC00001900020E9F73197AF01461B570BDC017A
:100DD000ED91FC910280F381E02D0994BC0186E342
:100DE00093E00C94DF060F931F93CF938C01C62FD3
:100DF0000E94F5056C2F6460C8010E94F5056C2FF8
:100E00006B7FC8010E94F50583EC90E00197F1F734
:100E1000CF911F910F9108950F931F93CF93DF935D
:100E20008C01D62FC42F607F642B0E94F30680E1D3
:100E3000D89FB00111246C2BC801DF91CF911F9175
:100E40000F910C94F30640E061E086E393E00E948A
:100E50000C078BE39FE10197F1F70895CF93DF93A0
:100E6000CDB7DEB728970FB6F894DEBF0FBECDBF63
:100E700098E0E7E0F1E0DE01119601900D929A957D
:100E8000E1F790913E03981708F48FEF90E0880FF8
:100E9000991F21E030E02C0F3D1F820F931FFC01B2
:100EA0006081606840E086E393E028960FB6F8948E
:100EB000DEBF0FBECDBFDF91CF910C940C0741E098
:100EC0000E940C0781E090E008958F929F92AF926C
:100ED000BF92CF92DF92EF92FF92CF93DF93CDB785
:100EE000DEB7A1970FB6F894DEBF0FBECDBF6C0181
:100EF000990FEE08FF08F7FE40C041E06DE286E37F
:100F000093E00E940C0722273327A9012C193D09E1
:100F10004E095F0919A2CE0181967C019AE0892EC3
:100F2000912CA12CB12CCA01B901A50194010E94F8
:100F3000B410605DF70162937F0121153105410511
:100F4000510589F790E080E0309729F0BF0186E3F2
:100F500093E00E94DF060196A1960FB6F894DEBFDB
:100F60000FBECDBFDF91CF91FF90EF90DF90CF907C
:100F7000BF90AF909F908F900895A701960119A2FE
:100F8000CE0181967C018AE0882E912CA12CB12C77
:100F9000CA01B901A50194010E94B410605DF70176
:100FA00062937F01211531054105510589F790E0D4
:100FB00080E0309789F2BF0186E393E00E94DF066C
:100FC000CBCFCF93DF93EC0188819981009711F00B
:100FD0000E943112198218821D821C821B821A8281
:100FE000DF91CF910895FC0180819181009711F0EC
:100FF0000C94311208950F931F93CF93DF93EC015C
:1010000088819981009759F02A813B8126173707FB
:1010100030F081E0DF91CF911F910F9108958B0106
:101020006F5F7F4F0E94BA12009759F099838883AF
:101030001B830A832C813D81232B59F7FC011082ED
:10104000E8CF80E0E7CF0F931F93CF93DF93EC01BE
:101050000C811D810F5F1F4FB8010E94FB07882381
:1010600091F0288139818C819D816FE371E0820F3D
:10107000931F0E9480131D830C83CE01DF91CF91BB
:101080001F910F910895CE010E94E107F6CFEF92D4
:10109000FF920F931F93CF93DF93EC01FB01E0804E
:1010A000F180E114F10411F104811581011511059C
:1010B000A9F08C819D81080F191FB801CE010E94F3
:1010C000FB07882399F0288139818C819D81B701A4
:1010D000820F931F0E9480131D830C83CE01DF912A
:1010E000CF911F910F91FF90EF900895CE010E9434
:1010F000E107F4CFEF92FF920F931F93CF93DF930B
:10110000EC017B018A01BA010E94FB0781110BC02F
:10111000CE010E94E107CE01DF91CF911F910F9187
:10112000FF90EF9008951D830C83B701888199810A
:101130000E948013F0CFEF92FF920F931F93CF93F3
:10114000DF93CDB7DEB762970FB6F894DEBF0FBE60
:10115000CDBF8C01CB01F801118210821382128263
:10116000158214824AE09E012F5F3F4F7901B90139
:101170000E940C0FF70101900020E9F73197AF01B1
:101180004E195F09B701C8010E947A0862960FB62E
:10119000F894DEBF0FBECDBFDF91CF911F910F91AD
:1011A000FF90EF90089585ED8093BC0080912C0214
:1011B00090912D02A0912E02B0912F020796A11DB1
:1011C000B11D23E0B695A795979587952A95D1F7F8
:1011D0002091BC0024FD03C010922A020895409182
:1011E0002C0250912D0260912E0270912F02452BFE
:1011F000462B472B69F30097A105B10541F02AE280
:101200002A95F1F700C00197A109B109E1CF8091BA
:101210002B020C944E051F920F920FB60F921124C1
:101220002F933F938F939F93AF93BF9380916502CA
:1012300090916602A0916702B091680230916002BD
:1012400023E0230F2D3758F50196A11DB11D2093E2
:1012500060028093650290936602A0936702B09348
:1012600068028091610290916202A0916302B09144
:1012700064020196A11DB11D8093610290936202E8
:10128000A0936302B0936402BF91AF919F918F913D
:101290003F912F910F900FBE0F901F90189526E849
:1012A000230F0296A11DB11DD2CF1F920F920FB630
:1012B0000F9211242F933F934F935F936F937F93DC
:1012C0008F939F93AF93BF93EF93FF9380916E02A1
:1012D00090916F02A0917002B0917102892B8A2BBC
:1012E0008B2BD1F190916902E0916A02F0916B022F
:1012F00080818927808380916E0290916F02A091F6
:101300007002B0917102181619061A061B069CF499
:1013100080916E0290916F02A0917002B091710263
:101320000197A109B10980936E0290936F02A09377
:101330007002B0937102FF91EF91BF91AF919F91B5
:101340008F917F916F915F914F913F912F910F906E
:101350000FBE0F901F901895809100010E94CF033F
:10136000EACF1F920F920FB60F9211242F933F9343
:101370004F935F936F937F938F939F93AF93BF939D
:10138000EF93FF938AE792E00E947904FF91EF9137
:10139000BF91AF919F918F917F916F915F914F918D
:1013A0003F912F910F900FBE0F901F9018951F9295
:1013B0000F920FB60F9211242F938F939F93EF9359
:1013C000FF93E0918A02F0918B028081E09190027C
:1013D000F091910282FD1BC09081809193028F5FFA
:1013E0008F7320919402821741F0E0919302F0E014
:1013F000E658FD4F958F80939302FF91EF919F9157
:101400008F912F910F900FBE0F901F901895808194
:10141000F4CF1F920F920FB60F9211242F933F9388
:101420004F935F936F937F938F939F93AF93BF93EC
:10143000EF93FF938091B900887F803609F44AC00A
:10144000F0F5883209F4A7C018F5803109F49BC083
:10145000B8F4882309F4F9C0883009F494C0FF91E6
:10146000EF91BF91AF919F918F917F916F915F911C
:101470004F913F912F910F900FBE0F901F90189595
:10148000883109F488C0803251F78093280214C053
:10149000803409F49DC040F48033B9F38833F9F601
:1014A0008093280285ECB0C0803509F485C088356A
:1014B00009F496C0883499F60E94D308D0CF8839B1
:1014C00009F48CC038F5883729F050F4883611F0CB
:1014D000803729F683E080932A021092030257C0D6
:1014E000883809F47BC0803919F0803809F0B7CF0B
:1014F00080910302803208F071C0E091030281E024
:101500008E0F809303028091BB00F0E0ED51FE4FFF
:1015100080833DC0803B39F0E0F4803A09F479C023
:10152000883A09F09CCF84E080932A021092E2016D
:101530001092E101E0915402F091550209958091D9
:10154000E10181110FC081E08093E1011092C1019E
:1015500009C0803C09F4A6CF883C09F4A3CF883B9E
:1015600009F07DCFE091E20181E08E0F8093E201EE
:10157000F0E0EF53FE4F80818093BB009091E20139
:101580008091E10129C0809105028093BB0085EC28
:101590008093BC0064CF9091270280912602981717
:1015A00058F5E091270281E08E0F80932702F0E04A
:1015B000EA5FFD4F8081E9CFE091270281E08E0F45
:1015C000809327028091BB00F0E0EA5FFD4F8083AB
:1015D00090912702809126029817C8F285E8D8CF0B
:1015E000E091270281E08E0F809327028091BB005B
:1015F000F0E0EA5FFD4F80838091290281115CCF8A
:1016000081E08093040284EA8093BC0010922A0255
:1016100026CF85EC8093BC0010922A0280910302B1
:10162000803230F4E0910302F0E0ED51FE4F108281
:101630006091030270E0E0915202F091530283EE58
:1016400091E00995109203020ACF1092280234CF3C
:10165000EAE7F2E01382128288EE93E0A0E0B0E0C5
:1016600084839583A683B78323E131E0318320838C
:1016700025EC30E03587248724EC30E03787268757
:1016800020EC30E0318B208B21EC30E0338B228B4F
:1016900022EC30E0358B248B26EC30E0378B268B28
:1016A000118E128E138E148EE7E1F3E013821282F4
:1016B00084839583A683B78385E291E091838083B9
:1016C000E6E3F3E01382128287E391E09183808363
:1016D00080E2848380E1818782E082871386A3E2AF
:1016E000B3E084E015968C9315978BE016968C9357
:1016F0001697E3EBF0E0E4911796EC931797EFE978
:10170000F0E0E4911896EC93189740E85EE360E00F
:1017100070E01D964D935D936D937C935097089563
:10172000CF93DF93CDB7DEB7EF970FB6F894DEBF58
:101730000FBECDBF789484B5826084BD84B58160CE
:1017400084BD85B5826085BD85B5816085BD80918C
:101750006E00816080936E00109281008091810004
:1017600082608093810080918100816080938100FC
:10177000809180008160809380008091B1008460BE
:101780008093B1008091B00081608093B00080911F
:101790007A00846080937A0080917A0082608093DE
:1017A0007A0080917A00816080937A0080917A003B
:1017B000806880937A001092C10061E082E00E940C
:1017C000110161E083E00E94110161E087E00E9465
:1017D000110160E080E10E941101E0918A02F09124
:1017E0008B0282E08083E0918602F0918702108272
:1017F000E0918802F09189028FEC8083109292022E
:10180000E0918E02F0918F0286E08083E0918C025D
:10181000F0918D02808180618083E0918C02F09153
:101820008D02808188608083E0918C02F0918D022E
:10183000808180688083E0918C02F0918D028081AC
:101840008F7D808310925902109258021092570295
:10185000109256020E9430058DEC93E09093550251
:10186000809354028EEC93E0909353028093520243
:1018700010923B0380914003823018F098E09093DF
:101880003B0380933E0362E370E080E090E00E94BF
:101890008C026091410386E393E00E94F50568EEB7
:1018A00073E080E090E00E948C0260E386E393E0C6
:1018B0000E94F3060BE416E4C8010197F1F760E318
:1018C00086E393E00E94F306C8010197F1F760E315
:1018D00086E393E00E94F30683E592E00197F1F737
:1018E00060E286E393E00E94F30660913B0360624E
:1018F00040E086E393E00E940C0784E080933C0381
:1019000040E06CE086E393E00E940C070E9423070E
:1019100082E080933D0340E066E086E393E00E942E
:101920000C0740E062E086E393E00E940C078BE343
:101930009FE10197F1F788E08093410360E086E33F
:1019400093E00E94F50562E0809128030E94110156
:101950002FB7F8948091650290916602A09167027A
:10196000B09168022FBF805D9740A109B1098093B3
:101970002C0390932D03A0932E03B0932F0387E3A2
:101980008093350380E00E942E0781E491E00E945D
:10199000EE0660ED77E080E090E00E948C020E940D
:1019A000230792E4E92E28EE422E23E0522E612CEA
:1019B000712C8E010F5F1F4F6E018AE3C80ED11C80
:1019C00030E0232E30E0332E0E94BE02882349F0FF
:1019D000809129038B3028F08D3040F08551823082
:1019E000C0F160E070E080EC9FE71CC060912403D0
:1019F00070E090E080E00E94650F2DEC3CEC4CEC38
:101A00005DE30E94A00F4B015C016091230370E035
:101A100090E080E00E94650F9B01AC01C501B4011C
:101A20000E94E6100E94521170935F0260935E0262
:101A30000E94BE02882341F0809129038C3009F472
:101A40005DC1C8F48B3081F160E070E080EC9FE70D
:101A500053C060912303709124037627672776276C
:101A600090E080E00E94630F2DEC3CEC4CEC5DE3D9
:101A70000E94A00FD7CF8551823030F7F090250318
:101A80006F2D70E0762F662766277F77809126037B
:101A9000682B90E080E00E94630F2DEC3CEC4CEC56
:101AA0005DE30E94A00F46C16091250370E090E0C5
:101AB00080E00E94630F4B015C01F0902603F7FE6B
:101AC0000AC0AC019B0160E070E080E89FEB0E94DF
:101AD000E5104B015C016F2D6F7070E090E080E0CD
:101AE0000E94650F2DEC3CEC4CEC5DE30E94A00FD6
:101AF000A50194010E94E6100E94521170935D02AC
:101B000060935C02E0927C0080917A008064809314
:101B10007A0080917A0086FDFCCFA0917800B09188
:101B2000790024E630E00E9488112FEF33E040E096
:101B300050E00E945E1030935B0220935A020E9494
:101B4000230780915C0290915D024E970CF4F6C0E1
:101B500061E082E00E94C50060E083E00E94C50071
:101B600088EE93E00E944D0180E00E942E0781E5FF
:101B700091E00E94EE0681E00E942E0782E691E04D
:101B80000E94EE0680915C0290915D020E946507C2
:101B900089E691E00E94EE068FB7F8948090650286
:101BA00090906602A0906702B09068028FBF60912B
:101BB0005A0270915B02CE0182960E949B0860914E
:101BC0005E0270915F02CE0188960E949B08609130
:101BD0005C0270915D02CE018E960E949B081DAA48
:101BE0001CAA1FAA1EAA19AE18AEC501B401A301F2
:101BF00092010E94B410CA01B9012AE0A8010E9412
:101C0000170FF80101900020E9F73197AF01401B51
:101C1000510BB801CE01C4960E947A081A8219822B
:101C20001C821B821E821D826CA97DA96115710513
:101C300029F048AD59ADC8010E947A08C8010E9438
:101C40002308BE01625D7F4F0E9447080E9423085F
:101C5000BE01685D7F4F0E9447080E942308BE01B5
:101C60006E5D7F4F0E9447081BAE1AAE1DAE1CAEC4
:101C70001FAE1EAE8C159D0559F0FC01608171816F
:101C80006115710529F044815581C6010E947A08C9
:101C9000C8010E94F307CE01C4960E94F307CE014B
:101CA0008E960E94F307CE0188960E94F307CE011C
:101CB00082960E94F3074EAD5FAD6AAD7BAD8AE7B9
:101CC00092E00E94FB036CE971E08AE792E00E94D7
:101CD000DF0660ED77E080E090E00E948C02C601B4
:101CE0000E94F3072114310409F46ECE0E946504AA
:101CF000882309F469CE0E94000066CEF090250387
:101D00006F2D70E090E080E00E94630F4B015C015A
:101D1000609126036F7070E090E080E00E94650F94
:101D20002DEC3CEC4CEC5DE30E94A00FA50194016E
:101D30000E94E610F7FEE0CE9058DECE80915E0263
:101D400090915F02873491051CF161E082E00E946E
:101D5000C50060E083E00E94C50088EE93E00E9429
:101D60004D0180E00E942E078BE691E00E94EE0676
:101D700081E00E942E0788E791E00E94EE068091A4
:101D80005E0290915F020E9465078EE791E002CFAC
:101D9000889794F461E082E00E94C50060E083E0EF
:101DA0000E94C50080E293E00E944D0180E00E9405
:101DB0002E0780E891E0DACF60E082E00E94C50063
:101DC00061E083E00E94C50087E00E94CF0380E0CD
:101DD0000E942E0782E691E00E94EE0680915C024E
:101DE00090915D020E94650789E691E00E94EE06EF
:101DF00081E00E942E078FE891E00E94EE0680911C
:101E00005A0290915B020E94650784E991E00E946A
:101E1000EE0687E991E0B1CFBB274A3031F4992330
:101E200022F4BDE2909581959F4F0C943A0FBB2709
:101E3000FA01A62F6217710581059105330B30FB5E
:101E400066F0AA27660F771F881F991FAA1FA2177F
:101E500010F0A21B63953850A9F7A05DAA3308F0D3
:101E6000A95DA19336F7B111B1931082CA010C9408
:101E7000530FBB27FB015527AA27880F991FAA1FBD
:101E8000A41710F0A41B83955051B9F7A05DAA3395
:101E900008F0A95DA193009779F7B111B193119260
:101EA000CB010C94530FDC01FC01672F7191772358
:101EB000E1F7329704C07C916D9370836291AE1705
:101EC000BF07C8F30895E89409C097FB3EF49095C6
:101ED0008095709561957F4F8F4F9F4F9923A9F003
:101EE000F92F96E9BB279395F69587957795679592
:101EF000B795F111F8CFFAF4BB0F11F460FF1BC0D6
:101F00006F5F7F4F8F4F9F4F16C0882311F096E968
:101F100011C0772321F09EE8872F762F05C0662316
:101F200071F096E8862F70E060E02AF09A95660FCF
:101F3000771F881FDAF7880F9695879597F9089588
:101F40000E94B30F0C9424100E94161038F00E94C7
:101F50001D1020F0952311F00C940D100C9413100B
:101F600011240C9458100E94351070F3959FC1F302
:101F7000950F50E0551F629FF001729FBB27F00D37
:101F8000B11D639FAA27F00DB11DAA1F649F66278C
:101F9000B00DA11D661F829F2227B00DA11D621FDB
:101FA000739FB00DA11D621F839FA00D611D221F95
:101FB000749F3327A00D611D231F849F600D211D79
:101FC000822F762F6A2F11249F5750409AF0F1F0FC
:101FD00088234AF0EE0FFF1FBB1F661F771F881F65
:101FE00091505040A9F79E3F510580F00C940D1080
:101FF0000C9458105F3FE4F3983ED4F386957795A0
:102000006795B795F795E7959F5FC1F7FE2B880F0A
:10201000911D9695879597F9089597F99F6780E8A0
:1020200070E060E008959FEF80EC089500240A942A
:102030001616170618060906089500240A941216A3
:102040001306140605060895092E0394000C11F4D6
:10205000882352F0BB0F40F4BF2B11F460FF04C083
:102060006F5F7F4F8F4F9F4F089557FD9058440FDC
:10207000551F59F05F3F71F04795880F97FB991FE7
:1020800061F09F3F79F087950895121613061406A4
:10209000551FF2CF4695F1DF08C016161706180631
:1020A000991FF1CF86957105610508940895E8940C
:1020B000BB2766277727CB0197F90895052E97FB55
:1020C0001EF400940E94751057FD07D00E94B410B2
:1020D00007FC03D04EF40C94751050954095309544
:1020E00021953F4F4F4F5F4F089590958095709584
:1020F00061957F4F8F4F9F4F08952F923F924F9240
:102100005F926F927F928F929F92AF92BF92CF9287
:10211000DF92EF92FF920F931F93CF93DF93CDB790
:10212000DEB7CA1BDB0B0FB6F894DEBF0FBECDBF08
:1021300009942A88398848885F846E847D848C84D9
:102140009B84AA84B984C884DF80EE80FD800C81E2
:102150001B81AA81B981CE0FD11D0FB6F894DEBFC5
:102160000FBECDBFED010895A1E21A2EAA1BBB1B25
:10217000FD010DC0AA1FBB1FEE1FFF1FA217B30753
:10218000E407F50720F0A21BB30BE40BF50B661F69
:10219000771F881F991F1A9469F76095709580952D
:1021A00090959B01AC01BD01CF010895A29FB001A4
:1021B000B39FC001A39F700D811D1124911DB29F7B
:1021C000700D811D1124911D08955058BB27AA2719
:1021D0000E94FD100C9424100E94161038F00E94EA
:1021E0001D1020F039F49F3F19F426F40C941310BD
:1021F0000EF4E095E7FB0C940D10E92F0E943510CA
:1022000058F3BA17620773078407950720F079F42B
:10221000A6F50C9457100EF4E0950B2EBA2FA02DB6
:102220000B01B90190010C01CA01A0011124FF2783
:10223000591B99F0593F50F4503E68F11A16F0407E
:10224000A22F232F342F4427585FF3CF469537957D
:102250002795A795F0405395C9F77EF41F16BA0B42
:10226000620B730B840BBAF09150A1F0FF0FBB1FF0
:10227000661F771F881FC2F70EC0BA0F621F731F39
:10228000841F48F4879577956795B795F7959E3F96
:1022900008F0B0CF9395880F08F09927EE0F979527
:1022A000879508950E9459116894B1110C945810A3
:1022B00008950E943D1088F09F5798F0B92F9927F4
:1022C000B751B0F0E1F0660F771F881F991F1AF021
:1022D000BA95C9F714C0B13091F00E945710B1E01F
:1022E00008950C945710672F782F8827B85F39F01E
:1022F000B93FCCF3869577956795B395D9F73EF4BA
:1023000090958095709561957F4F8F4F9F4F089561
:102310000E94D610B7FF0895821B930B0895EE0F0D
:10232000FF1F0590F491E02D09940F931F93CF9315
:10233000DF938230910510F482E090E0E091440355
:10234000F091450330E020E0B0E0A0E0309799F450
:102350002115310509F44AC0281B390B24303105F9
:10236000D8F58A819B816115710589F1FB01938301
:102370008283FE0111C0408151810281138148177F
:102380005907E0F04817590799F4109761F0129631
:102390000C93129713961C933296CF01DF91CF9135
:1023A0001F910F9108950093440310934503F4CFB8
:1023B0002115310551F04217530738F0A901DB010F
:1023C0009A01BD01DF01F801C1CFEF01F9CF909370
:1023D000450380934403CDCFFE01E20FF31F8193A9
:1023E00091932250310939832883D7CF209142031A
:1023F00030914303232B41F42091030130910401D8
:102400003093430320934203209101013091020154
:102410002115310541F42DB73EB74091050150918A
:102420000601241B350BE0914203F0914303E217B0
:10243000F307A0F42E1B3F0B2817390778F0AC01E7
:102440004E5F5F4F2417350748F04E0F5F1F5093C4
:10245000430340934203819391939FCFF0E0E0E0E8
:102460009CCFCF93DF930097E9F0FC013297138262
:102470001282A0914403B0914503ED0130E020E0C9
:102480001097A1F420813181820F931F2091420384
:10249000309143032817390709F061C0F0934303D3
:1024A000E0934203DF91CF910895EA01CE17DF0751
:1024B000E8F54A815B819E0141155105B1F7E901BB
:1024C000FB83EA8349915991C40FD51FEC17FD078F
:1024D00061F4808191810296840F951FE9019983AF
:1024E0008883828193819B838A83F0E0E0E0129667
:1024F0008D919C9113970097B9F52D913C9111976F
:10250000CD010296820F931F209142033091430325
:102510002817390739F6309751F510924503109274
:102520004403B0934303A0934203BCCFD383C2833D
:1025300040815181840F951FC817D90761F44E5F00
:102540005F4F88819981480F591F518340838A8149
:102550009B81938382832115310509F0B0CFF093DD
:102560004503E09344039ECFFD01DC01C0CF1382FD
:102570001282D7CFB0E0A0E0E0ECF2E10C947F1043
:102580008C01009751F4CB010E9495118C01C80178
:10259000CDB7DEB7E0E10C949B10FC01E60FF71F0E
:1025A0009C0122503109E217F30708F49DC0D901BC
:1025B000CD91DC911197C617D70798F0C530D1059A
:1025C00030F3CE0104978617970708F3C61BD70B85
:1025D0002297C193D1936D937C93CF010E943112C6
:1025E000D6CF5B01AC1ABD0A4C018C0E9D1EA0918A
:1025F0004403B0914503512C412CF12CE12C109750
:1026000031F580914203909143038815990509F0B3
:102610005CC04616570608F058C0809101019091A1
:102620000201009741F48DB79EB74091050150918A
:102630000601841B950BE817F90708F055C0F093C5
:102640004303E0934203F90171836083A0CF8D912E
:102650009C91119712966C90129713967C901397F9
:10266000A815B90559F56C0142E0C40ED11CCA1475
:10267000DB0420F1AC014A195B09DA0112961597C7
:1026800080F06282738251834083D9016D937C9381
:10269000E114F10471F0D7011396FC93EE931297B5
:1026A00076CF22968C0F9D1FF90191838083F301D1
:1026B000EFCFF0934503E093440369CF48165906E2
:1026C00008F42C017D01D3019ACFCB010E94951112
:1026D0007C01009749F0AE01B8010E947713C80150
:1026E0000E943112870153CF10E000E050CFFB0170
:1026F000DC0102C001900D9241505040D8F708957E
:10270000FB01DC0101900D920020E1F70895F8949F
:10271000FFCFFF000046038000000040001400547B
:1027200000000000009B04FB032804E80459043760
:10273000044B0400000000C6059905DC066F0592F5
:10274000057F057005000000005F07FB03DC06083D
:10275000052C004D4F4E49544F52494E4720535976
:10276000535400414C4552543A204849474820545C
:10277000454D500054656D703A20004300414C4572
:1027800052543A2048554D49440048756D3A20004E
:102790002500414C4552543A204C4F572048554D46
:1027A000004C67743A0025200048756D3A000D0A08
:0227B000000027
:107E0000112484B714BE81FFF0D085E080938100F7
:107E100082E08093C00088E18093C10086E0809377
:107E2000C20080E18093C4008EE0C9D0259A86E02C
:107E300020E33CEF91E0309385002093840096BBD3
:107E4000B09BFECF1D9AA8958150A9F7CC24DD24C4
:107E500088248394B5E0AB2EA1E19A2EF3E0BF2EE7
:107E6000A2D0813461F49FD0082FAFD0023811F036
:107E7000013811F484E001C083E08DD089C08234E0
:107E800011F484E103C0853419F485E0A6D080C0E4
:107E9000853579F488D0E82EFF2485D0082F10E0AE
:107EA000102F00270E291F29000F111F8ED06801E7
:107EB0006FC0863521F484E090D080E0DECF843638
:107EC00009F040C070D06FD0082F6DD080E0C81688
:107ED00080E7D80618F4F601B7BEE895C0E0D1E017
:107EE00062D089930C17E1F7F0E0CF16F0E7DF06D8
:107EF00018F0F601B7BEE89568D007B600FCFDCFD4
:107F0000A601A0E0B1E02C9130E011968C91119780
:107F100090E0982F8827822B932B1296FA010C0160
:107F200087BEE89511244E5F5F4FF1E0A038BF0790
:107F300051F7F601A7BEE89507B600FCFDCF97BE46
:107F4000E89526C08437B1F42ED02DD0F82E2BD052
:107F50003CD0F601EF2C8F010F5F1F4F84911BD097
:107F6000EA94F801C1F70894C11CD11CFA94CF0C13
:107F7000D11C0EC0853739F428D08EE10CD085E9AC
:107F80000AD08FE07ACF813511F488E018D01DD067
:107F900080E101D065CF982F8091C00085FFFCCF94
:107FA0009093C60008958091C00087FFFCCF809118
:107FB000C00084FD01C0A8958091C6000895E0E648
:107FC000F0E098E1908380830895EDDF803219F02E
:107FD00088E0F5DFFFCF84E1DECF1F93182FE3DFCA
:107FE0001150E9F7F2DF1F91089580E0E8DFEE27F6
:047FF000FF270994CA
:027FFE00040479
:00000001FF
